{"abi":[{"type":"constructor","inputs":[{"name":"_GLM","type":"address","internalType":"contract IERC20"}],"stateMutability":"nonpayable"},{"type":"function","name":"CONTRACT_ID","inputs":[],"outputs":[{"name":"","type":"uint64","internalType":"uint64"}],"stateMutability":"view"},{"type":"function","name":"CONTRACT_ID_AND_VERSION","inputs":[],"outputs":[{"name":"","type":"uint64","internalType":"uint64"}],"stateMutability":"view"},{"type":"function","name":"CONTRACT_VERSION","inputs":[],"outputs":[{"name":"","type":"uint64","internalType":"uint64"}],"stateMutability":"view"},{"type":"function","name":"GLM","inputs":[],"outputs":[{"name":"","type":"address","internalType":"contract IERC20"}],"stateMutability":"view"},{"type":"function","name":"closeDeposit","inputs":[{"name":"id","type":"uint256","internalType":"uint256"}],"outputs":[],"stateMutability":"nonpayable"},{"type":"function","name":"createDeposit","inputs":[{"name":"nonce","type":"uint64","internalType":"uint64"},{"name":"spender","type":"address","internalType":"address"},{"name":"amount","type":"uint128","internalType":"uint128"},{"name":"flatFeeAmount","type":"uint128","internalType":"uint128"},{"name":"validToTimestamp","type":"uint64","internalType":"uint64"}],"outputs":[{"name":"","type":"uint256","internalType":"uint256"}],"stateMutability":"nonpayable"},{"type":"function","name":"depositSingleTransfer","inputs":[{"name":"id","type":"uint256","internalType":"uint256"},{"name":"addr","type":"address","internalType":"address"},{"name":"amount","type":"uint128","internalType":"uint128"}],"outputs":[],"stateMutability":"nonpayable"},{"type":"function","name":"depositSingleTransferAndClose","inputs":[{"name":"id","type":"uint256","internalType":"uint256"},{"name":"addr","type":"address","internalType":"address"},{"name":"amount","type":"uint128","internalType":"uint128"}],"outputs":[],"stateMutability":"nonpayable"},{"type":"function","name":"depositTransfer","inputs":[{"name":"id","type":"uint256","internalType":"uint256"},{"name":"payments","type":"bytes32[]","internalType":"bytes32[]"}],"outputs":[],"stateMutability":"nonpayable"},{"type":"function","name":"depositTransferAndClose","inputs":[{"name":"id","type":"uint256","internalType":"uint256"},{"name":"payments","type":"bytes32[]","internalType":"bytes32[]"}],"outputs":[],"stateMutability":"nonpayable"},{"type":"function","name":"deposits","inputs":[{"name":"","type":"uint256","internalType":"uint256"}],"outputs":[{"name":"spender","type":"address","internalType":"address"},{"name":"amount","type":"uint128","internalType":"uint128"},{"name":"feeAmount","type":"uint128","internalType":"uint128"},{"name":"validTo","type":"uint64","internalType":"uint64"}],"stateMutability":"view"},{"type":"function","name":"extendDeposit","inputs":[{"name":"nonce","type":"uint64","internalType":"uint64"},{"name":"additionalAmount","type":"uint128","internalType":"uint128"},{"name":"additionalFlatFee","type":"uint128","internalType":"uint128"},{"name":"validToTimestamp","type":"uint64","internalType":"uint64"}],"outputs":[],"stateMutability":"nonpayable"},{"type":"function","name":"funderFromId","inputs":[{"name":"id","type":"uint256","internalType":"uint256"}],"outputs":[{"name":"","type":"address","internalType":"address"}],"stateMutability":"pure"},{"type":"function","name":"getDeposit","inputs":[{"name":"id","type":"uint256","internalType":"uint256"}],"outputs":[{"name":"","type":"tuple","internalType":"struct ILockPayment.DepositView","components":[{"name":"id","type":"uint256","internalType":"uint256"},{"name":"nonce","type":"uint64","internalType":"uint64"},{"name":"funder","type":"address","internalType":"address"},{"name":"spender","type":"address","internalType":"address"},{"name":"amount","type":"uint128","internalType":"uint128"},{"name":"validTo","type":"uint64","internalType":"uint64"}]}],"stateMutability":"view"},{"type":"function","name":"getDepositByNonce","inputs":[{"name":"nonce","type":"uint64","internalType":"uint64"},{"name":"funder","type":"address","internalType":"address"}],"outputs":[{"name":"","type":"tuple","internalType":"struct ILockPayment.DepositView","components":[{"name":"id","type":"uint256","internalType":"uint256"},{"name":"nonce","type":"uint64","internalType":"uint64"},{"name":"funder","type":"address","internalType":"address"},{"name":"spender","type":"address","internalType":"address"},{"name":"amount","type":"uint128","internalType":"uint128"},{"name":"validTo","type":"uint64","internalType":"uint64"}]}],"stateMutability":"view"},{"type":"function","name":"getValidateDepositSignature","inputs":[],"outputs":[{"name":"","type":"string","internalType":"string"}],"stateMutability":"pure"},{"type":"function","name":"idFromNonce","inputs":[{"name":"nonce","type":"uint64","internalType":"uint64"}],"outputs":[{"name":"","type":"uint256","internalType":"uint256"}],"stateMutability":"view"},{"type":"function","name":"idFromNonceAndFunder","inputs":[{"name":"nonce","type":"uint64","internalType":"uint64"},{"name":"funder","type":"address","internalType":"address"}],"outputs":[{"name":"","type":"uint256","internalType":"uint256"}],"stateMutability":"pure"},{"type":"function","name":"nonceFromId","inputs":[{"name":"id","type":"uint256","internalType":"uint256"}],"outputs":[{"name":"","type":"uint64","internalType":"uint64"}],"stateMutability":"pure"},{"type":"function","name":"terminateDeposit","inputs":[{"name":"nonce","type":"uint64","internalType":"uint64"}],"outputs":[],"stateMutability":"nonpayable"},{"type":"function","name":"validateDeposit","inputs":[{"name":"id","type":"uint256","internalType":"uint256"},{"name":"flatFeeAmount","type":"uint128","internalType":"uint128"}],"outputs":[{"name":"","type":"string","internalType":"string"}],"stateMutability":"view"},{"type":"event","name":"DepositClosed","inputs":[{"name":"id","type":"uint256","indexed":false,"internalType":"uint256"},{"name":"spender","type":"address","indexed":false,"internalType":"address"}],"anonymous":false},{"type":"event","name":"DepositCreated","inputs":[{"name":"id","type":"uint256","indexed":false,"internalType":"uint256"},{"name":"spender","type":"address","indexed":false,"internalType":"address"}],"anonymous":false},{"type":"event","name":"DepositExtended","inputs":[{"name":"id","type":"uint256","indexed":false,"internalType":"uint256"},{"name":"spender","type":"address","indexed":false,"internalType":"address"}],"anonymous":false},{"type":"event","name":"DepositTerminated","inputs":[{"name":"id","type":"uint256","indexed":false,"internalType":"uint256"},{"name":"spender","type":"address","indexed":false,"internalType":"address"}],"anonymous":false}],"bytecode":{"object":"0x60e0604052600260805264016758300060a05264016758300260c05234801561002757600080fd5b50604051611e0b380380611e0b833981016040819052610046916100f7565b60805160a051176001600160401b031660c0516001600160401b03161461006c57600080fd5b60805160a05161007c9190610127565b6001600160401b031660805160a051176001600160401b03161461009f57600080fd5b60805160a0516100af9190610127565b6001600160401b031660805160a051186001600160401b0316146100d257600080fd5b600080546001600160a01b0319166001600160a01b039290921691909117905561015a565b60006020828403121561010957600080fd5b81516001600160a01b038116811461012057600080fd5b9392505050565b6001600160401b03818116838216019081111561015457634e487b7160e01b600052601160045260246000fd5b92915050565b60805160a05160c051611c8261018960003960006103f2015260006101eb0152600061018b0152611c826000f3fe608060405234801561001057600080fd5b50600436106101375760003560e01c8063841dbca6116100b8578063ac658a481161007c578063ac658a4814610342578063b02c43d014610355578063d5605257146103ed578063d61a095614610414578063ee7b7ad814610427578063fbe1e3311461043a57600080fd5b8063841dbca61461026e5780638853a8de146102815780638c338c861461030b5780639e40a5cf1461031e5780639f9fb9681461032f57600080fd5b80634ed5ddb0116100ff5780634ed5ddb01461020d578063519f5dad14610222578063540469b81461023557806373930ff81461024857806383b24c521461025b57600080fd5b80631ae023701461013c57806330edc21d1461015a57806338b90333146101865780633a14b91f146101c55780633e35487c146101e6575b600080fd5b61014461044d565b6040516101519190611845565b60405180910390f35b61016e610168366004611893565b60601c90565b6040516001600160a01b039091168152602001610151565b6101ad7f000000000000000000000000000000000000000000000000000000000000000081565b6040516001600160401b039091168152602001610151565b6101d86101d33660046118c8565b61046d565b604051908152602001610151565b6101ad7f000000000000000000000000000000000000000000000000000000000000000081565b61022061021b3660046118ea565b61047f565b005b6101d8610230366004611997565b61076d565b6101446102433660046119fc565b610aa5565b6101d8610256366004611a28565b610baf565b610220610269366004611893565b610bd4565b61022061027c3660046118c8565b610e67565b61029461028f366004611a28565b6110e2565b6040516101519190600060c082019050825182526001600160401b03602084015116602083015260018060a01b03604084015116604083015260018060a01b0360608401511660608301526001600160801b0360808401511660808301526001600160401b0360a08401511660a083015292915050565b60005461016e906001600160a01b031681565b6101ad61032c366004611893565b90565b61029461033d366004611893565b6111f1565b610220610350366004611a52565b6112f3565b6103ad610363366004611893565b60016020819052600091825260409091208054918101546002909101546001600160a01b03909216916001600160801b0380831692600160801b900416906001600160401b031684565b604080516001600160a01b039590951685526001600160801b03938416602086015291909216908301526001600160401b03166060820152608001610151565b6101ad7f000000000000000000000000000000000000000000000000000000000000000081565b6102206104223660046118ea565b61159f565b610220610435366004611aa6565b6115b8565b610220610448366004611aa6565b61183a565b6060604051806080016040528060518152602001611bd860519139905090565b60006104798233610baf565b92915050565b600083815260016020818152604092839020835160808101855281546001600160a01b0316808252938201546001600160801b0380821694830194909452600160801b9004909216938201939093526002909201546001600160401b0316606083015233146105355760405162461bcd60e51b815260206004820152601d60248201527f6d73672e73656e646572203d3d206465706f7369742e7370656e64657200000060448201526064015b60405180910390fd5b60005b63ffffffff811683111561073357600084848363ffffffff1681811061056057610560611ae2565b6020029190910135915050606081901c6000610580600160601b84611af8565b905084600001516001600160a01b0316826001600160a01b0316036105e75760405162461bcd60e51b815260206004820152601a60248201527f63616e6e6f74207472616e7366657220746f207370656e646572000000000000604482015260640161052c565b60005460405163a9059cbb60e01b81526001600160a01b039091169063a9059cbb906106199085908590600401611b1a565b6020604051808303816000875af1158015610638573d6000803e3d6000fd5b505050506040513d601f19601f8201168201806040525081019061065c9190611b3c565b61069e5760405162461bcd60e51b815260206004820152601360248201527211d313481d1c985b9cd9995c8819985a5b1959606a1b604482015260640161052c565b806001600160801b031685602001516001600160801b031610156106ff5760405162461bcd60e51b815260206004820152601860248201527719195c1bdcda5d0b985b5bdd5b9d080f8f48185b5bdd5b9d60421b604482015260640161052c565b80856020018181516107119190611b74565b6001600160801b031690525061072c9250839150611b939050565b9050610538565b50602090810151600094855260019182905260409094200180546001600160801b0319166001600160801b03909416939093179092555050565b6000806107798761046d565b6000818152600160205260409020549091506001600160a01b0316156107ec5760405162461bcd60e51b815260206004820152602260248201527f6465706f736974735b69645d2e7370656e646572203d3d206164647265737328604482015261302960f01b606482015260840161052c565b6000856001600160801b0316116108325760405162461bcd60e51b815260206004820152600a6024820152690616d6f756e74203e20360b41b604482015260640161052c565b6001600160a01b0386166108885760405162461bcd60e51b815260206004820152601e60248201527f7370656e6465722063616e6e6f74206265206e756c6c20616464726573730000604482015260640161052c565b6001600160a01b03861633036108e05760405162461bcd60e51b815260206004820152601860248201527f7370656e6465722063616e6e6f742062652066756e6465720000000000000000604482015260640161052c565b6000546001600160a01b03166323b872dd33306108fd888a611bb8565b6040516001600160e01b031960e086901b1681526001600160a01b0393841660048201529290911660248301526001600160801b031660448201526064016020604051808303816000875af115801561095a573d6000803e3d6000fd5b505050506040513d601f19601f8201168201806040525081019061097e9190611b3c565b6109c05760405162461bcd60e51b81526020600482015260136024820152721d1c985b9cd9995c919c9bdb4819985a5b1959606a1b604482015260640161052c565b604080516080810182526001600160a01b038881168083526001600160801b0389811660208086019182528a83168688019081526001600160401b038b81166060890190815260008b81526001808652908b902099518a5499166001600160a01b0319909916989098178955935191518516600160801b0291909416179486019490945551600290940180549490911667ffffffffffffffff19909416939093179092558251848152908101919091527f788f62f195987bb297862ea62b31d08e6c02dd48c82691e3690b2a32b8fb759b910160405180910390a19695505050505050565b600082815260016020818152604092839020835160808101855281546001600160a01b0316808252938201546001600160801b0380821694830194909452600160801b9004909216938201939093526002909201546001600160401b03166060838101919091529190610b4d57505060408051808201909152601e81527f6661696c65642064756520746f2077726f6e67206465706f73697420696400006020820152610479565b80604001516001600160801b0316836001600160801b031614610b8b57604051806060016040528060248152602001611c2960249139915050610479565b50506040805180820190915260058152641d985b1a5960da1b602082015292915050565b6bffffffffffffffffffffffff19606082901b166001600160401b0383161892915050565b600081815260016020818152604092839020835160808101855281546001600160a01b0316808252938201546001600160801b0380821694830194909452600160801b9004909216938201939093526002909201546001600160401b031660608301523314610c4257600080fd5b6000546001600160a01b031663a9059cbb610c5d8460601c90565b83604001518460200151610c719190611bb8565b6040518363ffffffff1660e01b8152600401610c8e929190611b1a565b6020604051808303816000875af1158015610cad573d6000803e3d6000fd5b505050506040513d601f19601f82011682018060405250810190610cd19190611b3c565b610d165760405162461bcd60e51b81526020600482015260166024820152751c995d1d5c9b881d1c985b9cd9995c8819985a5b195960521b604482015260640161052c565b60408101516001600160801b031615610ded576000548151604080840151905163a9059cbb60e01b81526001600160a01b039093169263a9059cbb92610d60929091600401611b1a565b6020604051808303816000875af1158015610d7f573d6000803e3d6000fd5b505050506040513d601f19601f82011682018060405250810190610da39190611b3c565b610de55760405162461bcd60e51b8152602060048201526013602482015272199959481d1c985b9cd9995c8819985a5b1959606a1b604482015260640161052c565b600060408201525b60008281526001602081905260408083209182019290925580546001600160a01b031916610bad179055815190517f8ac07cc6e38c6222dd0309c80353c1962354bacf222b825d7401cc80e93ff3cc91610e5b918591909182526001600160a01b0316602082015260400190565b60405180910390a15050565b6000610e728261046d565b600081815260016020818152604092839020835160808101855281546001600160a01b03168152928101546001600160801b0380821693850193909352600160801b9004909116928201929092526002909101546001600160401b0316606082015290915033610ee28360601c90565b6001600160a01b031614610f385760405162461bcd60e51b815260206004820152601e60248201527f66756e64657246726f6d496428696429203d3d206d73672e73656e6465720000604482015260640161052c565b4281606001516001600160401b031610610f9e5760405162461bcd60e51b815260206004820152602160248201527f6465706f7369742e76616c6964546f203c20626c6f636b2e74696d657374616d6044820152600760fc1b606482015260840161052c565b600054604082015160208301516001600160a01b039092169163a9059cbb913391610fc99190611bb8565b6040518363ffffffff1660e01b8152600401610fe6929190611b1a565b6020604051808303816000875af1158015611005573d6000803e3d6000fd5b505050506040513d601f19601f820116820180604052508101906110299190611b3c565b6110675760405162461bcd60e51b815260206004820152600f60248201526e1d1c985b9cd9995c8819985a5b1959608a1b604482015260640161052c565b60008281526001602081905260408083209182019290925580546001600160a01b031916610bad179055815190517f843d1bd667ac549c763b55fefb74223882ce415856e0e243f24ed3b97f572f10916110d5918591909182526001600160a01b0316602082015260400190565b60405180910390a1505050565b6040805160c081018252600080825260208201819052918101829052606081018290526080810182905260a081018290529061111e8484610baf565b600081815260016020818152604092839020835160808101855281546001600160a01b03168152928101546001600160801b0380821685850152600160801b9091041683850152600201546001600160401b03166060830152825160c08101909352838352929350918101836001600160401b031681526020016111a28460601c90565b6001600160a01b0316815260200182600001516001600160a01b0316815260200182602001516001600160801b0316815260200182606001516001600160401b03168152509250505092915050565b6040805160c081018252600080825260208201819052918101829052606081018290526080810182905260a0810191909152600082815260016020818152604092839020835160808101855281546001600160a01b03168152928101546001600160801b0380821685850152600160801b9091041683850152600201546001600160401b03166060830152825160c081019093528483529091908101846001600160401b031681526020016112a68560601c90565b6001600160a01b0316815260200182600001516001600160a01b0316815260200182602001516001600160801b0316815260200182606001516001600160401b0316815250915050919050565b60006112fe8561046d565b6000818152600160208181526040808420815160808101835281546001600160a01b039081168252948201546001600160801b0380821695830195909552600160801b900490931691830191909152600201546001600160401b0316606082015291549293509091166323b872dd3330611378888a611bb8565b6040516001600160e01b031960e086901b1681526001600160a01b0393841660048201529290911660248301526001600160801b031660448201526064016020604051808303816000875af11580156113d5573d6000803e3d6000fd5b505050506040513d601f19601f820116820180604052508101906113f99190611b3c565b61143b5760405162461bcd60e51b81526020600482015260136024820152721d1c985b9cd9995c919c9bdb4819985a5b1959606a1b604482015260640161052c565b826001600160401b031681606001516001600160401b031611156114a15760405162461bcd60e51b815260206004820152601a60248201527f6465706f7369742e76616c6964546f203c3d2076616c6964546f000000000000604482015260640161052c565b84816020018181516114b39190611bb8565b6001600160801b03169052506040810180518591906114d3908390611bb8565b6001600160801b039081169091526001600160401b0385811660608501908152600086815260016020818152604092839020885181546001600160a01b0319166001600160a01b039091169081178255828a0151858b0151908916600160801b9190991602979097179281019290925592516002909101805467ffffffffffffffff191691909416179092558151868152908101929092527f28b2e97799d08959c3ff7a213e5de97fe58327ecbfdb497e039d5b45b85c462792500160405180910390a1505050505050565b6115aa83838361047f565b6115b383610bd4565b505050565b600083815260016020818152604092839020835160808101855281546001600160a01b0316808252938201546001600160801b0380821694830194909452600160801b9004909216938201939093526002909201546001600160401b0316606083015233146116695760405162461bcd60e51b815260206004820152601d60248201527f6d73672e73656e646572203d3d206465706f7369742e7370656e646572000000604482015260640161052c565b80600001516001600160a01b0316836001600160a01b0316036116ce5760405162461bcd60e51b815260206004820152601a60248201527f63616e6e6f74207472616e7366657220746f207370656e646572000000000000604482015260640161052c565b60005460405163a9059cbb60e01b81526001600160a01b039091169063a9059cbb906117009086908690600401611b1a565b6020604051808303816000875af115801561171f573d6000803e3d6000fd5b505050506040513d601f19601f820116820180604052508101906117439190611b3c565b6117855760405162461bcd60e51b815260206004820152601360248201527211d313481d1c985b9cd9995c8819985a5b1959606a1b604482015260640161052c565b816001600160801b031681602001516001600160801b031610156117e65760405162461bcd60e51b815260206004820152601860248201527719195c1bdcda5d0b985b5bdd5b9d080f8f48185b5bdd5b9d60421b604482015260640161052c565b81816020018181516117f89190611b74565b6001600160801b039081169091526020928301516000968752600193849052604090962090920180546001600160801b03191695909216949094179055505050565b6115aa8383836115b8565b602081526000825180602084015260005b818110156118735760208186018101516040868401015201611856565b506000604082850101526040601f19601f83011684010191505092915050565b6000602082840312156118a557600080fd5b5035919050565b80356001600160401b03811681146118c357600080fd5b919050565b6000602082840312156118da57600080fd5b6118e3826118ac565b9392505050565b6000806000604084860312156118ff57600080fd5b8335925060208401356001600160401b0381111561191c57600080fd5b8401601f8101861361192d57600080fd5b80356001600160401b0381111561194357600080fd5b8660208260051b840101111561195857600080fd5b939660209190910195509293505050565b80356001600160a01b03811681146118c357600080fd5b80356001600160801b03811681146118c357600080fd5b600080600080600060a086880312156119af57600080fd5b6119b8866118ac565b94506119c660208701611969565b93506119d460408701611980565b92506119e260608701611980565b91506119f0608087016118ac565b90509295509295909350565b60008060408385031215611a0f57600080fd5b82359150611a1f60208401611980565b90509250929050565b60008060408385031215611a3b57600080fd5b611a44836118ac565b9150611a1f60208401611969565b60008060008060808587031215611a6857600080fd5b611a71856118ac565b9350611a7f60208601611980565b9250611a8d60408601611980565b9150611a9b606086016118ac565b905092959194509250565b600080600060608486031215611abb57600080fd5b83359250611acb60208501611969565b9150611ad960408501611980565b90509250925092565b634e487b7160e01b600052603260045260246000fd5b600082611b1557634e487b7160e01b600052601260045260246000fd5b500690565b6001600160a01b039290921682526001600160801b0316602082015260400190565b600060208284031215611b4e57600080fd5b815180151581146118e357600080fd5b634e487b7160e01b600052601160045260246000fd5b6001600160801b03828116828216039081111561047957610479611b5e565b600063ffffffff821663ffffffff8103611baf57611baf611b5e565b60010192915050565b6001600160801b03818116838216019081111561047957610479611b5e56fe5b7b2274797065223a202275696e74323536222c20226e616d65223a20226964227d2c207b2274797065223a202275696e74313238222c20226e616d65223a2022666c6174466565416d6f756e74227d5d6661696c65642064756520746f20666c6174466565416d6f756e74206d69736d61746368a2646970667358221220d8ca1bb0ee2b4af013b0b85a1413098ed0c109bc366d6b7e6c90e036735c4b0d64736f6c634300081a0033","linkReferences":{}},"methodIdentifiers":{"CONTRACT_ID()":"3e35487c","CONTRACT_ID_AND_VERSION()":"d5605257","CONTRACT_VERSION()":"38b90333","GLM()":"8c338c86","closeDeposit(uint256)":"83b24c52","createDeposit(uint64,address,uint128,uint128,uint64)":"519f5dad","depositSingleTransfer(uint256,address,uint128)":"ee7b7ad8","depositSingleTransferAndClose(uint256,address,uint128)":"fbe1e331","depositTransfer(uint256,bytes32[])":"4ed5ddb0","depositTransferAndClose(uint256,bytes32[])":"d61a0956","deposits(uint256)":"b02c43d0","extendDeposit(uint64,uint128,uint128,uint64)":"ac658a48","funderFromId(uint256)":"30edc21d","getDeposit(uint256)":"9f9fb968","getDepositByNonce(uint64,address)":"8853a8de","getValidateDepositSignature()":"1ae02370","idFromNonce(uint64)":"3a14b91f","idFromNonceAndFunder(uint64,address)":"73930ff8","nonceFromId(uint256)":"9e40a5cf","terminateDeposit(uint64)":"841dbca6","validateDeposit(uint256,uint128)":"540469b8"},"id":0}